{
  "contractName": "Prescripcion",
  "abi": [
    {
      "inputs": [
        {
          "internalType": "uint256",
          "name": "",
          "type": "uint256"
        }
      ],
      "name": "recetas",
      "outputs": [
        {
          "internalType": "string",
          "name": "nombre",
          "type": "string"
        },
        {
          "internalType": "string",
          "name": "apellido",
          "type": "string"
        },
        {
          "internalType": "uint256",
          "name": "nro_afiliado",
          "type": "uint256"
        },
        {
          "internalType": "uint256",
          "name": "dni",
          "type": "uint256"
        },
        {
          "internalType": "string",
          "name": "plan",
          "type": "string"
        },
        {
          "internalType": "uint256",
          "name": "edad",
          "type": "uint256"
        },
        {
          "components": [
            {
              "internalType": "string",
              "name": "medicacion",
              "type": "string"
            },
            {
              "internalType": "uint256",
              "name": "cantidad",
              "type": "uint256"
            }
          ],
          "internalType": "struct Prescripcion.Rp",
          "name": "rp",
          "type": "tuple"
        }
      ],
      "stateMutability": "view",
      "type": "function",
      "constant": true
    },
    {
      "inputs": [
        {
          "internalType": "string",
          "name": "_nombre",
          "type": "string"
        },
        {
          "internalType": "string",
          "name": "_apellido",
          "type": "string"
        },
        {
          "internalType": "uint256",
          "name": "_nro_afiliado",
          "type": "uint256"
        },
        {
          "internalType": "uint256",
          "name": "_dni",
          "type": "uint256"
        },
        {
          "internalType": "string",
          "name": "_plan",
          "type": "string"
        },
        {
          "internalType": "uint256",
          "name": "_edad",
          "type": "uint256"
        },
        {
          "internalType": "string",
          "name": "_medicacion",
          "type": "string"
        },
        {
          "internalType": "uint256",
          "name": "_cantidad",
          "type": "uint256"
        }
      ],
      "name": "agregarReceta",
      "outputs": [],
      "stateMutability": "nonpayable",
      "type": "function"
    },
    {
      "inputs": [],
      "name": "obtenerCantidadRecetas",
      "outputs": [
        {
          "internalType": "uint256",
          "name": "",
          "type": "uint256"
        }
      ],
      "stateMutability": "view",
      "type": "function",
      "constant": true
    },
    {
      "inputs": [
        {
          "internalType": "uint256",
          "name": "index",
          "type": "uint256"
        }
      ],
      "name": "obtenerReceta",
      "outputs": [
        {
          "components": [
            {
              "internalType": "string",
              "name": "nombre",
              "type": "string"
            },
            {
              "internalType": "string",
              "name": "apellido",
              "type": "string"
            },
            {
              "internalType": "uint256",
              "name": "nro_afiliado",
              "type": "uint256"
            },
            {
              "internalType": "uint256",
              "name": "dni",
              "type": "uint256"
            },
            {
              "internalType": "string",
              "name": "plan",
              "type": "string"
            },
            {
              "internalType": "uint256",
              "name": "edad",
              "type": "uint256"
            },
            {
              "components": [
                {
                  "internalType": "string",
                  "name": "medicacion",
                  "type": "string"
                },
                {
                  "internalType": "uint256",
                  "name": "cantidad",
                  "type": "uint256"
                }
              ],
              "internalType": "struct Prescripcion.Rp",
              "name": "rp",
              "type": "tuple"
            }
          ],
          "internalType": "struct Prescripcion.Receta",
          "name": "",
          "type": "tuple"
        }
      ],
      "stateMutability": "view",
      "type": "function",
      "constant": true
    }
  ],
  "bytecode": "0x608060405234801561001057600080fd5b50610c0f806100206000396000f3fe608060405234801561001057600080fd5b506004361061004c5760003560e01c80635b8f23581461005157806360dc050b14610080578063b6453144146100a0578063f56971c7146100b5575b600080fd5b61006461005f3660046109bb565b6100ca565b6040516100779796959493929190610a47565b60405180910390f35b61009361008e3660046109bb565b61035a565b6040516100779190610ae2565b6100a8610651565b6040516100779190610b7f565b6100c86100c33660046108ec565b610657565b005b600081815481106100da57600080fd5b90600052602060002090600802016000915090508060000180546100fd90610b88565b80601f016020809104026020016040519081016040528092919081815260200182805461012990610b88565b80156101765780601f1061014b57610100808354040283529160200191610176565b820191906000526020600020905b81548152906001019060200180831161015957829003601f168201915b50505050509080600101805461018b90610b88565b80601f01602080910402602001604051908101604052809291908181526020018280546101b790610b88565b80156102045780601f106101d957610100808354040283529160200191610204565b820191906000526020600020905b8154815290600101906020018083116101e757829003601f168201915b50505050509080600201549080600301549080600401805461022590610b88565b80601f016020809104026020016040519081016040528092919081815260200182805461025190610b88565b801561029e5780601f106102735761010080835404028352916020019161029e565b820191906000526020600020905b81548152906001019060200180831161028157829003601f168201915b505050505090806005015490806006016040518060400160405290816000820180546102c990610b88565b80601f01602080910402602001604051908101604052809291908181526020018280546102f590610b88565b80156103425780601f1061031757610100808354040283529160200191610342565b820191906000526020600020905b81548152906001019060200180831161032557829003601f168201915b50505050508152602001600182015481525050905087565b610362610776565b600054821061038c5760405162461bcd60e51b815260040161038390610ab4565b60405180910390fd5b600082815481106103ad57634e487b7160e01b600052603260045260246000fd5b90600052602060002090600802016040518060e00160405290816000820180546103d690610b88565b80601f016020809104026020016040519081016040528092919081815260200182805461040290610b88565b801561044f5780601f106104245761010080835404028352916020019161044f565b820191906000526020600020905b81548152906001019060200180831161043257829003601f168201915b5050505050815260200160018201805461046890610b88565b80601f016020809104026020016040519081016040528092919081815260200182805461049490610b88565b80156104e15780601f106104b6576101008083540402835291602001916104e1565b820191906000526020600020905b8154815290600101906020018083116104c457829003601f168201915b50505050508152602001600282015481526020016003820154815260200160048201805461050e90610b88565b80601f016020809104026020016040519081016040528092919081815260200182805461053a90610b88565b80156105875780601f1061055c57610100808354040283529160200191610587565b820191906000526020600020905b81548152906001019060200180831161056a57829003601f168201915b5050505050815260200160058201548152602001600682016040518060400160405290816000820180546105ba90610b88565b80601f01602080910402602001604051908101604052809291908181526020018280546105e690610b88565b80156106335780601f1061060857610100808354040283529160200191610633565b820191906000526020600020905b81548152906001019060200180831161061657829003601f168201915b50505050508152602001600182015481525050815250509050919050565b60005490565b6040805180820182528381526020808201849052825160e0810184528b81528082018b9052928301899052606083018890526080830187905260a0830186905260c083018290526000805460018101825590805283518051939493849360089093027f290decd9548b62a8d60345a988386fc84ba6bc95484008f6362f93160ef3e56301926106ea9284929101906107b8565b50602082810151805161070392600185019201906107b8565b506040820151600282015560608201516003820155608082015180516107339160048401916020909101906107b8565b5060a0820151600582015560c082015180518051600684019161075b918391602001906107b8565b50602082015181600101555050505050505050505050505050565b6040518060e001604052806060815260200160608152602001600081526020016000815260200160608152602001600081526020016107b361083c565b905290565b8280546107c490610b88565b90600052602060002090601f0160209004810192826107e6576000855561082c565b82601f106107ff57805160ff191683800117855561082c565b8280016001018555821561082c579182015b8281111561082c578251825591602001919060010190610811565b50610838929150610856565b5090565b604051806040016040528060608152602001600081525090565b5b808211156108385760008155600101610857565b600082601f83011261087b578081fd5b813567ffffffffffffffff8082111561089657610896610bc3565b604051601f8301601f1916810160200182811182821017156108ba576108ba610bc3565b6040528281528483016020018610156108d1578384fd5b82602086016020830137918201602001929092529392505050565b600080600080600080600080610100898b031215610908578384fd5b883567ffffffffffffffff8082111561091f578586fd5b61092b8c838d0161086b565b995060208b0135915080821115610940578586fd5b61094c8c838d0161086b565b985060408b0135975060608b0135965060808b013591508082111561096f578586fd5b61097b8c838d0161086b565b955060a08b0135945060c08b0135915080821115610997578384fd5b506109a48b828c0161086b565b92505060e089013590509295985092959890939650565b6000602082840312156109cc578081fd5b5035919050565b60008151808452815b818110156109f8576020818501810151868301820152016109dc565b81811115610a095782602083870101525b50601f01601f19169290920160200192915050565b6000815160408452610a3360408501826109d3565b602093840151949093019390935250919050565b600060e08252610a5a60e083018a6109d3565b8281036020840152610a6c818a6109d3565b90508760408401528660608401528281036080840152610a8c81876109d3565b90508460a084015282810360c0840152610aa68185610a1e565b9a9950505050505050505050565b602080825260149082015273526563657461206e6f20656e636f6e747261646160601b604082015260600190565b600060208252825160e06020840152610aff6101008401826109d3565b90506020840151601f1980858403016040860152610b1d83836109d3565b9250604086015160608601526060860151608086015260808601519150808584030160a0860152610b4e83836109d3565b925060a086015160c086015260c08601519150808584030160e086015250610b768282610a1e565b95945050505050565b90815260200190565b600281046001821680610b9c57607f821691505b60208210811415610bbd57634e487b7160e01b600052602260045260246000fd5b50919050565b634e487b7160e01b600052604160045260246000fdfea2646970667358221220a63c0f6a214afeec25b27c9d3d5ad9318b3735dfc8f193d0847f8643f2030c1764736f6c63430008000033",
  "immutableReferences": {},
  "source": "// SPDX-License-Identifier: MIT\r\npragma solidity ^0.8.0;\r\n\r\ncontract Prescripcion {\r\n\r\n    struct Rp {\r\n        string medicacion;\r\n        uint cantidad;\r\n    }\r\n\r\n    struct Receta {\r\n        string nombre;\r\n        string apellido;\r\n        uint nro_afiliado;\r\n        uint dni;\r\n        string plan;\r\n        uint edad;\r\n        Rp rp;\r\n    }\r\n\r\n    Receta[] public recetas;\r\n\r\n    function agregarReceta(\r\n        string memory _nombre, \r\n        string memory _apellido, \r\n        uint _nro_afiliado, \r\n        uint _dni, \r\n        string memory _plan, \r\n        uint _edad, \r\n        string memory _medicacion, \r\n        uint _cantidad\r\n    ) public {\r\n        Rp memory nuevaRp = Rp(_medicacion, _cantidad);\r\n        Receta memory nuevaReceta = Receta({\r\n            nombre: _nombre, \r\n            apellido: _apellido, \r\n            nro_afiliado: _nro_afiliado, \r\n            dni: _dni, \r\n            plan: _plan, \r\n            edad: _edad, \r\n            rp: nuevaRp\r\n        });\r\n        recetas.push(nuevaReceta);\r\n    }\r\n\r\n    function obtenerCantidadRecetas() public view returns (uint) {\r\n        return recetas.length;\r\n    }\r\n\r\n    function obtenerReceta(uint index) public view returns (Receta memory) {\r\n        require(index < recetas.length, \"Receta no encontrada\");\r\n        return recetas[index];\r\n    }\r\n}\r\n",
  "sourcePath": "C:\\Users\\Usuario\\OneDrive\\Escritorio\\OneDrive\\2024\\Trabajo Final\\bcprueba\\contracts\\Prueba.sol",
  "compiler": {
    "name": "solc",
    "version": "0.8.0+commit.c7dfd78e.Emscripten.clang"
  },
  "schemaVersion": "3.4.16",
  "updatedAt": "2024-07-02T00:54:49.277Z",
  "networkType": "ethereum",
  "devdoc": {
    "kind": "dev",
    "methods": {},
    "version": 1
  },
  "userdoc": {
    "kind": "user",
    "methods": {},
    "version": 1
  }
}